{
  "_format": "hh-sol-artifact-1",
  "contractName": "NFTForge",
  "sourceName": "contracts/NFTForge.sol",
  "abi": [
    {
      "inputs": [
        {
          "internalType": "string",
          "name": "url",
          "type": "string"
        },
        {
          "internalType": "uint256[]",
          "name": "amounts",
          "type": "uint256[]"
        }
      ],
      "stateMutability": "nonpayable",
      "type": "constructor"
    },
    {
      "anonymous": false,
      "inputs": [
        {
          "indexed": true,
          "internalType": "address",
          "name": "account",
          "type": "address"
        },
        {
          "indexed": true,
          "internalType": "address",
          "name": "operator",
          "type": "address"
        },
        {
          "indexed": false,
          "internalType": "bool",
          "name": "approved",
          "type": "bool"
        }
      ],
      "name": "ApprovalForAll",
      "type": "event"
    },
    {
      "anonymous": false,
      "inputs": [
        {
          "indexed": true,
          "internalType": "address",
          "name": "operator",
          "type": "address"
        },
        {
          "indexed": true,
          "internalType": "address",
          "name": "from",
          "type": "address"
        },
        {
          "indexed": true,
          "internalType": "address",
          "name": "to",
          "type": "address"
        },
        {
          "indexed": false,
          "internalType": "uint256[]",
          "name": "ids",
          "type": "uint256[]"
        },
        {
          "indexed": false,
          "internalType": "uint256[]",
          "name": "values",
          "type": "uint256[]"
        }
      ],
      "name": "TransferBatch",
      "type": "event"
    },
    {
      "anonymous": false,
      "inputs": [
        {
          "indexed": true,
          "internalType": "address",
          "name": "operator",
          "type": "address"
        },
        {
          "indexed": true,
          "internalType": "address",
          "name": "from",
          "type": "address"
        },
        {
          "indexed": true,
          "internalType": "address",
          "name": "to",
          "type": "address"
        },
        {
          "indexed": false,
          "internalType": "uint256",
          "name": "id",
          "type": "uint256"
        },
        {
          "indexed": false,
          "internalType": "uint256",
          "name": "value",
          "type": "uint256"
        }
      ],
      "name": "TransferSingle",
      "type": "event"
    },
    {
      "anonymous": false,
      "inputs": [
        {
          "indexed": false,
          "internalType": "string",
          "name": "value",
          "type": "string"
        },
        {
          "indexed": true,
          "internalType": "uint256",
          "name": "id",
          "type": "uint256"
        }
      ],
      "name": "URI",
      "type": "event"
    },
    {
      "inputs": [
        {
          "internalType": "address",
          "name": "account",
          "type": "address"
        },
        {
          "internalType": "uint256",
          "name": "id",
          "type": "uint256"
        }
      ],
      "name": "balanceOf",
      "outputs": [
        {
          "internalType": "uint256",
          "name": "",
          "type": "uint256"
        }
      ],
      "stateMutability": "view",
      "type": "function"
    },
    {
      "inputs": [
        {
          "internalType": "address[]",
          "name": "accounts",
          "type": "address[]"
        },
        {
          "internalType": "uint256[]",
          "name": "ids",
          "type": "uint256[]"
        }
      ],
      "name": "balanceOfBatch",
      "outputs": [
        {
          "internalType": "uint256[]",
          "name": "",
          "type": "uint256[]"
        }
      ],
      "stateMutability": "view",
      "type": "function"
    },
    {
      "inputs": [],
      "name": "getIds",
      "outputs": [
        {
          "internalType": "uint256[]",
          "name": "",
          "type": "uint256[]"
        }
      ],
      "stateMutability": "view",
      "type": "function"
    },
    {
      "inputs": [
        {
          "internalType": "address",
          "name": "account",
          "type": "address"
        },
        {
          "internalType": "address",
          "name": "operator",
          "type": "address"
        }
      ],
      "name": "isApprovedForAll",
      "outputs": [
        {
          "internalType": "bool",
          "name": "",
          "type": "bool"
        }
      ],
      "stateMutability": "view",
      "type": "function"
    },
    {
      "inputs": [
        {
          "internalType": "uint256",
          "name": "nonce",
          "type": "uint256"
        }
      ],
      "name": "prng",
      "outputs": [
        {
          "internalType": "uint256",
          "name": "",
          "type": "uint256"
        }
      ],
      "stateMutability": "view",
      "type": "function"
    },
    {
      "inputs": [
        {
          "internalType": "address",
          "name": "from",
          "type": "address"
        },
        {
          "internalType": "address",
          "name": "to",
          "type": "address"
        },
        {
          "internalType": "uint256[]",
          "name": "ids",
          "type": "uint256[]"
        },
        {
          "internalType": "uint256[]",
          "name": "amounts",
          "type": "uint256[]"
        },
        {
          "internalType": "bytes",
          "name": "data",
          "type": "bytes"
        }
      ],
      "name": "safeBatchTransferFrom",
      "outputs": [],
      "stateMutability": "nonpayable",
      "type": "function"
    },
    {
      "inputs": [
        {
          "internalType": "address",
          "name": "from",
          "type": "address"
        },
        {
          "internalType": "address",
          "name": "to",
          "type": "address"
        },
        {
          "internalType": "uint256",
          "name": "id",
          "type": "uint256"
        },
        {
          "internalType": "uint256",
          "name": "amount",
          "type": "uint256"
        },
        {
          "internalType": "bytes",
          "name": "data",
          "type": "bytes"
        }
      ],
      "name": "safeTransferFrom",
      "outputs": [],
      "stateMutability": "nonpayable",
      "type": "function"
    },
    {
      "inputs": [
        {
          "internalType": "address",
          "name": "operator",
          "type": "address"
        },
        {
          "internalType": "bool",
          "name": "approved",
          "type": "bool"
        }
      ],
      "name": "setApprovalForAll",
      "outputs": [],
      "stateMutability": "nonpayable",
      "type": "function"
    },
    {
      "inputs": [
        {
          "internalType": "bytes4",
          "name": "interfaceId",
          "type": "bytes4"
        }
      ],
      "name": "supportsInterface",
      "outputs": [
        {
          "internalType": "bool",
          "name": "",
          "type": "bool"
        }
      ],
      "stateMutability": "view",
      "type": "function"
    },
    {
      "inputs": [
        {
          "internalType": "uint256",
          "name": "_tokenId",
          "type": "uint256"
        }
      ],
      "name": "uri",
      "outputs": [
        {
          "internalType": "string",
          "name": "",
          "type": "string"
        }
      ],
      "stateMutability": "view",
      "type": "function"
    }
  ],
  "bytecode": "0x60806040523480156200001157600080fd5b5060405162003d8c38038062003d8c833981810160405281019062000037919062000a9b565b8162000049816200031d60201b60201c565b506000815167ffffffffffffffff8111156200008e577f4e487b7100000000000000000000000000000000000000000000000000000000600052604160045260246000fd5b604051908082528060200260200182016040528015620000bd5781602001602082028036833780820191505090505b5060039080519060200190620000d59291906200082b565b50815167ffffffffffffffff81111562000118577f4e487b7100000000000000000000000000000000000000000000000000000000600052604160045260246000fd5b604051908082528060200260200182016040528015620001475781602001602082028036833780820191505090505b50600490805190602001906200015f9291906200082b565b50600090505b8151811015620003145762000180816200033960201b60201c565b60038281548110620001bb577f4e487b7100000000000000000000000000000000000000000000000000000000600052603260045260246000fd5b906000526020600020018190555081818151811062000203577f4e487b7100000000000000000000000000000000000000000000000000000000600052603260045260246000fd5b60200260200101516004828154811062000246577f4e487b7100000000000000000000000000000000000000000000000000000000600052603260045260246000fd5b9060005260206000200181905550620002fd336003838154811062000294577f4e487b7100000000000000000000000000000000000000000000000000000000600052603260045260246000fd5b9060005260206000200154848481518110620002d9577f4e487b7100000000000000000000000000000000000000000000000000000000600052603260045260246000fd5b6020026020010151604051806020016040528060008152506200037060201b60201c565b6001816200030c919062000e6e565b905062000165565b505050620012a9565b8060029080519060200190620003359291906200087d565b5050565b600081336040516020016200035092919062000c5d565b6040516020818303038152906040528051906020012060001c9050919050565b600073ffffffffffffffffffffffffffffffffffffffff168473ffffffffffffffffffffffffffffffffffffffff161415620003e3576040517f08c379a0000000000000000000000000000000000000000000000000000000008152600401620003da9062000d59565b60405180910390fd5b6000620003f56200053560201b60201c565b90506200042e8160008762000410886200053d60201b60201c565b62000421886200053d60201b60201c565b876200060660201b60201c565b8260008086815260200190815260200160002060008773ffffffffffffffffffffffffffffffffffffffff1673ffffffffffffffffffffffffffffffffffffffff16815260200190815260200160002060008282546200048f919062000e6e565b925050819055508473ffffffffffffffffffffffffffffffffffffffff16600073ffffffffffffffffffffffffffffffffffffffff168273ffffffffffffffffffffffffffffffffffffffff167fc3d58168c5ae7397731d063d5bbf3d657854427343f4c083240f7aacaa2d0f6287876040516200050f92919062000d7b565b60405180910390a46200052e816000878787876200060e60201b60201c565b5050505050565b600033905090565b60606000600167ffffffffffffffff81111562000583577f4e487b7100000000000000000000000000000000000000000000000000000000600052604160045260246000fd5b604051908082528060200260200182016040528015620005b25781602001602082028036833780820191505090505b5090508281600081518110620005f1577f4e487b7100000000000000000000000000000000000000000000000000000000600052603260045260246000fd5b60200260200101818152505080915050919050565b505050505050565b6200063a8473ffffffffffffffffffffffffffffffffffffffff166200081860201b620009af1760201c565b1562000810578373ffffffffffffffffffffffffffffffffffffffff1663f23a6e6187878686866040518663ffffffff1660e01b81526004016200068395949392919062000c8d565b602060405180830381600087803b1580156200069e57600080fd5b505af1925050508015620006d257506040513d601f19601f82011682018060405250810190620006cf919062000a6f565b60015b6200078457620006e162001096565b806308c379a01415620007455750620006f9620011d3565b8062000706575062000747565b806040517f08c379a00000000000000000000000000000000000000000000000000000000081526004016200073c919062000cf1565b60405180910390fd5b505b6040517f08c379a00000000000000000000000000000000000000000000000000000000081526004016200077b9062000d15565b60405180910390fd5b63f23a6e6160e01b7bffffffffffffffffffffffffffffffffffffffffffffffffffffffff1916817bffffffffffffffffffffffffffffffffffffffffffffffffffffffff1916146200080e576040517f08c379a0000000000000000000000000000000000000000000000000000000008152600401620008059062000d37565b60405180910390fd5b505b505050505050565b600080823b905060008111915050919050565b8280548282559060005260206000209081019282156200086a579160200282015b82811115620008695782518255916020019190600101906200084c565b5b5090506200087991906200090e565b5090565b8280546200088b9062000f6b565b90600052602060002090601f016020900481019282620008af5760008555620008fb565b82601f10620008ca57805160ff1916838001178555620008fb565b82800160010185558215620008fb579182015b82811115620008fa578251825591602001919060010190620008dd565b5b5090506200090a91906200090e565b5090565b5b80821115620009295760008160009055506001016200090f565b5090565b6000620009446200093e8462000dd1565b62000da8565b905080838252602082019050828560208602820111156200096457600080fd5b60005b858110156200099857816200097d888262000a58565b84526020840193506020830192505060018101905062000967565b5050509392505050565b6000620009b9620009b38462000e00565b62000da8565b905082815260208101848484011115620009d257600080fd5b620009df84828562000f35565b509392505050565b600082601f830112620009f957600080fd5b815162000a0b8482602086016200092d565b91505092915050565b60008151905062000a258162001275565b92915050565b600082601f83011262000a3d57600080fd5b815162000a4f848260208601620009a2565b91505092915050565b60008151905062000a69816200128f565b92915050565b60006020828403121562000a8257600080fd5b600062000a928482850162000a14565b91505092915050565b6000806040838503121562000aaf57600080fd5b600083015167ffffffffffffffff81111562000aca57600080fd5b62000ad88582860162000a2b565b925050602083015167ffffffffffffffff81111562000af657600080fd5b62000b0485828601620009e7565b9150509250929050565b62000b198162000ecb565b82525050565b62000b3462000b2e8262000ecb565b62000fd7565b82525050565b600062000b478262000e36565b62000b53818562000e4c565b935062000b6581856020860162000f35565b62000b7081620010bb565b840191505092915050565b600062000b888262000e41565b62000b94818562000e5d565b935062000ba681856020860162000f35565b62000bb181620010bb565b840191505092915050565b600062000bcb60348362000e5d565b915062000bd882620010e6565b604082019050919050565b600062000bf260288362000e5d565b915062000bff8262001135565b604082019050919050565b600062000c1960218362000e5d565b915062000c268262001184565b604082019050919050565b62000c3c8162000f2b565b82525050565b62000c5762000c518262000f2b565b62000fff565b82525050565b600062000c6b828562000c42565b60208201915062000c7d828462000b1f565b6014820191508190509392505050565b600060a08201905062000ca4600083018862000b0e565b62000cb3602083018762000b0e565b62000cc2604083018662000c31565b62000cd1606083018562000c31565b818103608083015262000ce5818462000b3a565b90509695505050505050565b6000602082019050818103600083015262000d0d818462000b7b565b905092915050565b6000602082019050818103600083015262000d308162000bbc565b9050919050565b6000602082019050818103600083015262000d528162000be3565b9050919050565b6000602082019050818103600083015262000d748162000c0a565b9050919050565b600060408201905062000d92600083018562000c31565b62000da1602083018462000c31565b9392505050565b600062000db462000dc7565b905062000dc2828262000fa1565b919050565b6000604051905090565b600067ffffffffffffffff82111562000def5762000dee62001067565b5b602082029050602081019050919050565b600067ffffffffffffffff82111562000e1e5762000e1d62001067565b5b62000e2982620010bb565b9050602081019050919050565b600081519050919050565b600081519050919050565b600082825260208201905092915050565b600082825260208201905092915050565b600062000e7b8262000f2b565b915062000e888362000f2b565b9250827fffffffffffffffffffffffffffffffffffffffffffffffffffffffffffffffff0382111562000ec05762000ebf62001009565b5b828201905092915050565b600062000ed88262000f0b565b9050919050565b60007fffffffff0000000000000000000000000000000000000000000000000000000082169050919050565b600073ffffffffffffffffffffffffffffffffffffffff82169050919050565b6000819050919050565b60005b8381101562000f5557808201518184015260208101905062000f38565b8381111562000f65576000848401525b50505050565b6000600282049050600182168062000f8457607f821691505b6020821081141562000f9b5762000f9a62001038565b5b50919050565b62000fac82620010bb565b810181811067ffffffffffffffff8211171562000fce5762000fcd62001067565b5b80604052505050565b600062000fe48262000feb565b9050919050565b600062000ff882620010cc565b9050919050565b6000819050919050565b7f4e487b7100000000000000000000000000000000000000000000000000000000600052601160045260246000fd5b7f4e487b7100000000000000000000000000000000000000000000000000000000600052602260045260246000fd5b7f4e487b7100000000000000000000000000000000000000000000000000000000600052604160045260246000fd5b600060033d1115620010b85760046000803e620010b5600051620010d9565b90505b90565b6000601f19601f8301169050919050565b60008160601b9050919050565b60008160e01c9050919050565b7f455243313135353a207472616e7366657220746f206e6f6e204552433131353560008201527f526563656976657220696d706c656d656e746572000000000000000000000000602082015250565b7f455243313135353a204552433131353552656365697665722072656a6563746560008201527f6420746f6b656e73000000000000000000000000000000000000000000000000602082015250565b7f455243313135353a206d696e7420746f20746865207a65726f2061646472657360008201527f7300000000000000000000000000000000000000000000000000000000000000602082015250565b600060443d1015620011e55762001272565b620011ef62000dc7565b60043d036004823e80513d602482011167ffffffffffffffff821117156200121957505062001272565b808201805167ffffffffffffffff81111562001239575050505062001272565b80602083010160043d0385018111156200125857505050505062001272565b620012698260200185018662000fa1565b82955050505050505b90565b620012808162000edf565b81146200128c57600080fd5b50565b6200129a8162000f2b565b8114620012a657600080fd5b50565b612ad380620012b96000396000f3fe608060405234801561001057600080fd5b506004361061009d5760003560e01c806340dc6f591161006657806340dc6f591461016c5780634e1273f41461019c578063a22cb465146101cc578063e985e9c5146101e8578063f242432a146102185761009d565b8062fdd58e146100a257806301ffc9a7146100d25780630e89341c146101025780632b105663146101325780632eb2c2d614610150575b600080fd5b6100bc60048036038101906100b79190611ab6565b610234565b6040516100c991906121a2565b60405180910390f35b6100ec60048036038101906100e79190611b5e565b6102fd565b6040516100f99190612025565b60405180910390f35b61011c60048036038101906101179190611bb0565b6103df565b6040516101299190612040565b60405180910390f35b61013a61041a565b6040516101479190611fcc565b60405180910390f35b61016a6004803603810190610165919061192c565b610472565b005b61018660048036038101906101819190611bb0565b610513565b60405161019391906121a2565b60405180910390f35b6101b660048036038101906101b19190611af2565b610548565b6040516101c39190611fcc565b60405180910390f35b6101e660048036038101906101e19190611a7a565b6106f9565b005b61020260048036038101906101fd91906118f0565b61087a565b60405161020f9190612025565b60405180910390f35b610232600480360381019061022d91906119eb565b61090e565b005b60008073ffffffffffffffffffffffffffffffffffffffff168373ffffffffffffffffffffffffffffffffffffffff1614156102a5576040517f08c379a000000000000000000000000000000000000000000000000000000000815260040161029c906120a2565b60405180910390fd5b60008083815260200190815260200160002060008473ffffffffffffffffffffffffffffffffffffffff1673ffffffffffffffffffffffffffffffffffffffff16815260200190815260200160002054905092915050565b60007fd9b67a26000000000000000000000000000000000000000000000000000000007bffffffffffffffffffffffffffffffffffffffffffffffffffffffff1916827bffffffffffffffffffffffffffffffffffffffffffffffffffffffff191614806103c857507f0e89341c000000000000000000000000000000000000000000000000000000007bffffffffffffffffffffffffffffffffffffffffffffffffffffffff1916827bffffffffffffffffffffffffffffffffffffffffffffffffffffffff1916145b806103d857506103d7826109c2565b5b9050919050565b60606103ea82610a2c565b6103f383610ac0565b604051602001610404929190611eba565b6040516020818303038152906040529050919050565b6060600380548060200260200160405190810160405280929190818152602001828054801561046857602002820191906000526020600020905b815481526020019060010190808311610454575b5050505050905090565b61047a610c6d565b73ffffffffffffffffffffffffffffffffffffffff168573ffffffffffffffffffffffffffffffffffffffff1614806104c057506104bf856104ba610c6d565b61087a565b5b6104ff576040517f08c379a00000000000000000000000000000000000000000000000000000000081526004016104f690612102565b60405180910390fd5b61050c8585858585610c75565b5050505050565b60008133604051602001610528929190611ede565b6040516020818303038152906040528051906020012060001c9050919050565b6060815183511461058e576040517f08c379a000000000000000000000000000000000000000000000000000000000815260040161058590612162565b60405180910390fd5b6000835167ffffffffffffffff8111156105d1577f4e487b7100000000000000000000000000000000000000000000000000000000600052604160045260246000fd5b6040519080825280602002602001820160405280156105ff5781602001602082028036833780820191505090505b50905060005b84518110156106ee5761069885828151811061064a577f4e487b7100000000000000000000000000000000000000000000000000000000600052603260045260246000fd5b602002602001015185838151811061068b577f4e487b7100000000000000000000000000000000000000000000000000000000600052603260045260246000fd5b6020026020010151610234565b8282815181106106d1577f4e487b7100000000000000000000000000000000000000000000000000000000600052603260045260246000fd5b602002602001018181525050806106e7906124e4565b9050610605565b508091505092915050565b8173ffffffffffffffffffffffffffffffffffffffff16610718610c6d565b73ffffffffffffffffffffffffffffffffffffffff16141561076f576040517f08c379a000000000000000000000000000000000000000000000000000000000815260040161076690612142565b60405180910390fd5b806001600061077c610c6d565b73ffffffffffffffffffffffffffffffffffffffff1673ffffffffffffffffffffffffffffffffffffffff16815260200190815260200160002060008473ffffffffffffffffffffffffffffffffffffffff1673ffffffffffffffffffffffffffffffffffffffff16815260200190815260200160002060006101000a81548160ff0219169083151502179055508173ffffffffffffffffffffffffffffffffffffffff16610829610c6d565b73ffffffffffffffffffffffffffffffffffffffff167f17307eab39ab6107e8899845ad3d59bd9653f200f220920489ca2b5937696c318360405161086e9190612025565b60405180910390a35050565b6000600160008473ffffffffffffffffffffffffffffffffffffffff1673ffffffffffffffffffffffffffffffffffffffff16815260200190815260200160002060008373ffffffffffffffffffffffffffffffffffffffff1673ffffffffffffffffffffffffffffffffffffffff16815260200190815260200160002060009054906101000a900460ff16905092915050565b610916610c6d565b73ffffffffffffffffffffffffffffffffffffffff168573ffffffffffffffffffffffffffffffffffffffff16148061095c575061095b85610956610c6d565b61087a565b5b61099b576040517f08c379a0000000000000000000000000000000000000000000000000000000008152600401610992906120c2565b60405180910390fd5b6109a88585858585610fd5565b5050505050565b600080823b905060008111915050919050565b60007f01ffc9a7000000000000000000000000000000000000000000000000000000007bffffffffffffffffffffffffffffffffffffffffffffffffffffffff1916827bffffffffffffffffffffffffffffffffffffffffffffffffffffffff1916149050919050565b606060028054610a3b90612481565b80601f0160208091040260200160405190810160405280929190818152602001828054610a6790612481565b8015610ab45780601f10610a8957610100808354040283529160200191610ab4565b820191906000526020600020905b815481529060010190602001808311610a9757829003601f168201915b50505050509050919050565b60606000821415610b08576040518060400160405280600181526020017f30000000000000000000000000000000000000000000000000000000000000008152509050610c68565b600082905060005b60008214610b3a578080610b23906124e4565b915050600a82610b339190612366565b9150610b10565b60008167ffffffffffffffff811115610b7c577f4e487b7100000000000000000000000000000000000000000000000000000000600052604160045260246000fd5b6040519080825280601f01601f191660200182016040528015610bae5781602001600182028036833780820191505090505b5090505b60008514610c6157600182610bc79190612397565b9150600a85610bd6919061255b565b6030610be29190612310565b60f81b818381518110610c1e577f4e487b7100000000000000000000000000000000000000000000000000000000600052603260045260246000fd5b60200101907effffffffffffffffffffffffffffffffffffffffffffffffffffffffffffff1916908160001a905350600a85610c5a9190612366565b9450610bb2565b8093505050505b919050565b600033905090565b8151835114610cb9576040517f08c379a0000000000000000000000000000000000000000000000000000000008152600401610cb090612182565b60405180910390fd5b600073ffffffffffffffffffffffffffffffffffffffff168473ffffffffffffffffffffffffffffffffffffffff161415610d29576040517f08c379a0000000000000000000000000000000000000000000000000000000008152600401610d20906120e2565b60405180910390fd5b6000610d33610c6d565b9050610d43818787878787611257565b60005b8451811015610f40576000858281518110610d8a577f4e487b7100000000000000000000000000000000000000000000000000000000600052603260045260246000fd5b602002602001015190506000858381518110610dcf577f4e487b7100000000000000000000000000000000000000000000000000000000600052603260045260246000fd5b60200260200101519050600080600084815260200190815260200160002060008b73ffffffffffffffffffffffffffffffffffffffff1673ffffffffffffffffffffffffffffffffffffffff16815260200190815260200160002054905081811015610e70576040517f08c379a0000000000000000000000000000000000000000000000000000000008152600401610e6790612122565b60405180910390fd5b81810360008085815260200190815260200160002060008c73ffffffffffffffffffffffffffffffffffffffff1673ffffffffffffffffffffffffffffffffffffffff168152602001908152602001600020819055508160008085815260200190815260200160002060008b73ffffffffffffffffffffffffffffffffffffffff1673ffffffffffffffffffffffffffffffffffffffff1681526020019081526020016000206000828254610f259190612310565b9250508190555050505080610f39906124e4565b9050610d46565b508473ffffffffffffffffffffffffffffffffffffffff168673ffffffffffffffffffffffffffffffffffffffff168273ffffffffffffffffffffffffffffffffffffffff167f4a39dc06d4c0dbc64b70af90fd698a233a518aa5d07e595d983b8c0526c8f7fb8787604051610fb7929190611fee565b60405180910390a4610fcd81878787878761125f565b505050505050565b600073ffffffffffffffffffffffffffffffffffffffff168473ffffffffffffffffffffffffffffffffffffffff161415611045576040517f08c379a000000000000000000000000000000000000000000000000000000000815260040161103c906120e2565b60405180910390fd5b600061104f610c6d565b905061106f81878761106088611446565b61106988611446565b87611257565b600080600086815260200190815260200160002060008873ffffffffffffffffffffffffffffffffffffffff1673ffffffffffffffffffffffffffffffffffffffff16815260200190815260200160002054905083811015611106576040517f08c379a00000000000000000000000000000000000000000000000000000000081526004016110fd90612122565b60405180910390fd5b83810360008087815260200190815260200160002060008973ffffffffffffffffffffffffffffffffffffffff1673ffffffffffffffffffffffffffffffffffffffff168152602001908152602001600020819055508360008087815260200190815260200160002060008873ffffffffffffffffffffffffffffffffffffffff1673ffffffffffffffffffffffffffffffffffffffff16815260200190815260200160002060008282546111bb9190612310565b925050819055508573ffffffffffffffffffffffffffffffffffffffff168773ffffffffffffffffffffffffffffffffffffffff168373ffffffffffffffffffffffffffffffffffffffff167fc3d58168c5ae7397731d063d5bbf3d657854427343f4c083240f7aacaa2d0f6288886040516112389291906121bd565b60405180910390a461124e82888888888861150c565b50505050505050565b505050505050565b61127e8473ffffffffffffffffffffffffffffffffffffffff166109af565b1561143e578373ffffffffffffffffffffffffffffffffffffffff1663bc197c8187878686866040518663ffffffff1660e01b81526004016112c4959493929190611f0a565b602060405180830381600087803b1580156112de57600080fd5b505af192505050801561130f57506040513d601f19601f8201168201806040525081019061130c9190611b87565b60015b6113b55761131b612648565b806308c379a0141561137857506113306129ab565b8061133b575061137a565b806040517f08c379a000000000000000000000000000000000000000000000000000000000815260040161136f9190612040565b60405180910390fd5b505b6040517f08c379a00000000000000000000000000000000000000000000000000000000081526004016113ac90612062565b60405180910390fd5b63bc197c8160e01b7bffffffffffffffffffffffffffffffffffffffffffffffffffffffff1916817bffffffffffffffffffffffffffffffffffffffffffffffffffffffff19161461143c576040517f08c379a000000000000000000000000000000000000000000000000000000000815260040161143390612082565b60405180910390fd5b505b505050505050565b60606000600167ffffffffffffffff81111561148b577f4e487b7100000000000000000000000000000000000000000000000000000000600052604160045260246000fd5b6040519080825280602002602001820160405280156114b95781602001602082028036833780820191505090505b50905082816000815181106114f7577f4e487b7100000000000000000000000000000000000000000000000000000000600052603260045260246000fd5b60200260200101818152505080915050919050565b61152b8473ffffffffffffffffffffffffffffffffffffffff166109af565b156116eb578373ffffffffffffffffffffffffffffffffffffffff1663f23a6e6187878686866040518663ffffffff1660e01b8152600401611571959493929190611f72565b602060405180830381600087803b15801561158b57600080fd5b505af19250505080156115bc57506040513d601f19601f820116820180604052508101906115b99190611b87565b60015b611662576115c8612648565b806308c379a0141561162557506115dd6129ab565b806115e85750611627565b806040517f08c379a000000000000000000000000000000000000000000000000000000000815260040161161c9190612040565b60405180910390fd5b505b6040517f08c379a000000000000000000000000000000000000000000000000000000000815260040161165990612062565b60405180910390fd5b63f23a6e6160e01b7bffffffffffffffffffffffffffffffffffffffffffffffffffffffff1916817bffffffffffffffffffffffffffffffffffffffffffffffffffffffff1916146116e9576040517f08c379a00000000000000000000000000000000000000000000000000000000081526004016116e090612082565b60405180910390fd5b505b505050505050565b60006117066117018461220b565b6121e6565b9050808382526020820190508285602086028201111561172557600080fd5b60005b85811015611755578161173b8882611809565b845260208401935060208301925050600181019050611728565b5050509392505050565b600061177261176d84612237565b6121e6565b9050808382526020820190508285602086028201111561179157600080fd5b60005b858110156117c157816117a788826118db565b845260208401935060208301925050600181019050611794565b5050509392505050565b60006117de6117d984612263565b6121e6565b9050828152602081018484840111156117f657600080fd5b61180184828561243f565b509392505050565b60008135905061181881612a41565b92915050565b600082601f83011261182f57600080fd5b813561183f8482602086016116f3565b91505092915050565b600082601f83011261185957600080fd5b813561186984826020860161175f565b91505092915050565b60008135905061188181612a58565b92915050565b60008135905061189681612a6f565b92915050565b6000815190506118ab81612a6f565b92915050565b600082601f8301126118c257600080fd5b81356118d28482602086016117cb565b91505092915050565b6000813590506118ea81612a86565b92915050565b6000806040838503121561190357600080fd5b600061191185828601611809565b925050602061192285828601611809565b9150509250929050565b600080600080600060a0868803121561194457600080fd5b600061195288828901611809565b955050602061196388828901611809565b945050604086013567ffffffffffffffff81111561198057600080fd5b61198c88828901611848565b935050606086013567ffffffffffffffff8111156119a957600080fd5b6119b588828901611848565b925050608086013567ffffffffffffffff8111156119d257600080fd5b6119de888289016118b1565b9150509295509295909350565b600080600080600060a08688031215611a0357600080fd5b6000611a1188828901611809565b9550506020611a2288828901611809565b9450506040611a33888289016118db565b9350506060611a44888289016118db565b925050608086013567ffffffffffffffff811115611a6157600080fd5b611a6d888289016118b1565b9150509295509295909350565b60008060408385031215611a8d57600080fd5b6000611a9b85828601611809565b9250506020611aac85828601611872565b9150509250929050565b60008060408385031215611ac957600080fd5b6000611ad785828601611809565b9250506020611ae8858286016118db565b9150509250929050565b60008060408385031215611b0557600080fd5b600083013567ffffffffffffffff811115611b1f57600080fd5b611b2b8582860161181e565b925050602083013567ffffffffffffffff811115611b4857600080fd5b611b5485828601611848565b9150509250929050565b600060208284031215611b7057600080fd5b6000611b7e84828501611887565b91505092915050565b600060208284031215611b9957600080fd5b6000611ba78482850161189c565b91505092915050565b600060208284031215611bc257600080fd5b6000611bd0848285016118db565b91505092915050565b6000611be58383611e85565b60208301905092915050565b611bfa816123cb565b82525050565b611c11611c0c826123cb565b61252d565b82525050565b6000611c22826122a4565b611c2c81856122d2565b9350611c3783612294565b8060005b83811015611c68578151611c4f8882611bd9565b9750611c5a836122c5565b925050600181019050611c3b565b5085935050505092915050565b611c7e816123dd565b82525050565b6000611c8f826122af565b611c9981856122e3565b9350611ca981856020860161244e565b611cb28161266a565b840191505092915050565b6000611cc8826122ba565b611cd281856122f4565b9350611ce281856020860161244e565b611ceb8161266a565b840191505092915050565b6000611d01826122ba565b611d0b8185612305565b9350611d1b81856020860161244e565b80840191505092915050565b6000611d346034836122f4565b9150611d3f82612695565b604082019050919050565b6000611d576028836122f4565b9150611d62826126e4565b604082019050919050565b6000611d7a602b836122f4565b9150611d8582612733565b604082019050919050565b6000611d9d6029836122f4565b9150611da882612782565b604082019050919050565b6000611dc06025836122f4565b9150611dcb826127d1565b604082019050919050565b6000611de36032836122f4565b9150611dee82612820565b604082019050919050565b6000611e06602a836122f4565b9150611e118261286f565b604082019050919050565b6000611e296029836122f4565b9150611e34826128be565b604082019050919050565b6000611e4c6029836122f4565b9150611e578261290d565b604082019050919050565b6000611e6f6028836122f4565b9150611e7a8261295c565b604082019050919050565b611e8e81612435565b82525050565b611e9d81612435565b82525050565b611eb4611eaf82612435565b612551565b82525050565b6000611ec68285611cf6565b9150611ed28284611cf6565b91508190509392505050565b6000611eea8285611ea3565b602082019150611efa8284611c00565b6014820191508190509392505050565b600060a082019050611f1f6000830188611bf1565b611f2c6020830187611bf1565b8181036040830152611f3e8186611c17565b90508181036060830152611f528185611c17565b90508181036080830152611f668184611c84565b90509695505050505050565b600060a082019050611f876000830188611bf1565b611f946020830187611bf1565b611fa16040830186611e94565b611fae6060830185611e94565b8181036080830152611fc08184611c84565b90509695505050505050565b60006020820190508181036000830152611fe68184611c17565b905092915050565b600060408201905081810360008301526120088185611c17565b9050818103602083015261201c8184611c17565b90509392505050565b600060208201905061203a6000830184611c75565b92915050565b6000602082019050818103600083015261205a8184611cbd565b905092915050565b6000602082019050818103600083015261207b81611d27565b9050919050565b6000602082019050818103600083015261209b81611d4a565b9050919050565b600060208201905081810360008301526120bb81611d6d565b9050919050565b600060208201905081810360008301526120db81611d90565b9050919050565b600060208201905081810360008301526120fb81611db3565b9050919050565b6000602082019050818103600083015261211b81611dd6565b9050919050565b6000602082019050818103600083015261213b81611df9565b9050919050565b6000602082019050818103600083015261215b81611e1c565b9050919050565b6000602082019050818103600083015261217b81611e3f565b9050919050565b6000602082019050818103600083015261219b81611e62565b9050919050565b60006020820190506121b76000830184611e94565b92915050565b60006040820190506121d26000830185611e94565b6121df6020830184611e94565b9392505050565b60006121f0612201565b90506121fc82826124b3565b919050565b6000604051905090565b600067ffffffffffffffff82111561222657612225612619565b5b602082029050602081019050919050565b600067ffffffffffffffff82111561225257612251612619565b5b602082029050602081019050919050565b600067ffffffffffffffff82111561227e5761227d612619565b5b6122878261266a565b9050602081019050919050565b6000819050602082019050919050565b600081519050919050565b600081519050919050565b600081519050919050565b6000602082019050919050565b600082825260208201905092915050565b600082825260208201905092915050565b600082825260208201905092915050565b600081905092915050565b600061231b82612435565b915061232683612435565b9250827fffffffffffffffffffffffffffffffffffffffffffffffffffffffffffffffff0382111561235b5761235a61258c565b5b828201905092915050565b600061237182612435565b915061237c83612435565b92508261238c5761238b6125bb565b5b828204905092915050565b60006123a282612435565b91506123ad83612435565b9250828210156123c0576123bf61258c565b5b828203905092915050565b60006123d682612415565b9050919050565b60008115159050919050565b60007fffffffff0000000000000000000000000000000000000000000000000000000082169050919050565b600073ffffffffffffffffffffffffffffffffffffffff82169050919050565b6000819050919050565b82818337600083830152505050565b60005b8381101561246c578082015181840152602081019050612451565b8381111561247b576000848401525b50505050565b6000600282049050600182168061249957607f821691505b602082108114156124ad576124ac6125ea565b5b50919050565b6124bc8261266a565b810181811067ffffffffffffffff821117156124db576124da612619565b5b80604052505050565b60006124ef82612435565b91507fffffffffffffffffffffffffffffffffffffffffffffffffffffffffffffffff8214156125225761252161258c565b5b600182019050919050565b60006125388261253f565b9050919050565b600061254a8261267b565b9050919050565b6000819050919050565b600061256682612435565b915061257183612435565b925082612581576125806125bb565b5b828206905092915050565b7f4e487b7100000000000000000000000000000000000000000000000000000000600052601160045260246000fd5b7f4e487b7100000000000000000000000000000000000000000000000000000000600052601260045260246000fd5b7f4e487b7100000000000000000000000000000000000000000000000000000000600052602260045260246000fd5b7f4e487b7100000000000000000000000000000000000000000000000000000000600052604160045260246000fd5b600060033d11156126675760046000803e612664600051612688565b90505b90565b6000601f19601f8301169050919050565b60008160601b9050919050565b60008160e01c9050919050565b7f455243313135353a207472616e7366657220746f206e6f6e204552433131353560008201527f526563656976657220696d706c656d656e746572000000000000000000000000602082015250565b7f455243313135353a204552433131353552656365697665722072656a6563746560008201527f6420746f6b656e73000000000000000000000000000000000000000000000000602082015250565b7f455243313135353a2062616c616e636520717565727920666f7220746865207a60008201527f65726f2061646472657373000000000000000000000000000000000000000000602082015250565b7f455243313135353a2063616c6c6572206973206e6f74206f776e6572206e6f7260008201527f20617070726f7665640000000000000000000000000000000000000000000000602082015250565b7f455243313135353a207472616e7366657220746f20746865207a65726f20616460008201527f6472657373000000000000000000000000000000000000000000000000000000602082015250565b7f455243313135353a207472616e736665722063616c6c6572206973206e6f742060008201527f6f776e6572206e6f7220617070726f7665640000000000000000000000000000602082015250565b7f455243313135353a20696e73756666696369656e742062616c616e636520666f60008201527f72207472616e7366657200000000000000000000000000000000000000000000602082015250565b7f455243313135353a2073657474696e6720617070726f76616c2073746174757360008201527f20666f722073656c660000000000000000000000000000000000000000000000602082015250565b7f455243313135353a206163636f756e747320616e6420696473206c656e67746860008201527f206d69736d617463680000000000000000000000000000000000000000000000602082015250565b7f455243313135353a2069647320616e6420616d6f756e7473206c656e6774682060008201527f6d69736d61746368000000000000000000000000000000000000000000000000602082015250565b600060443d10156129bb57612a3e565b6129c3612201565b60043d036004823e80513d602482011167ffffffffffffffff821117156129eb575050612a3e565b808201805167ffffffffffffffff811115612a095750505050612a3e565b80602083010160043d038501811115612a26575050505050612a3e565b612a35826020018501866124b3565b82955050505050505b90565b612a4a816123cb565b8114612a5557600080fd5b50565b612a61816123dd565b8114612a6c57600080fd5b50565b612a78816123e9565b8114612a8357600080fd5b50565b612a8f81612435565b8114612a9a57600080fd5b5056fea26469706673582212206aeed8a8661178080103e889648a578081042faf64a381048a5e776c2d74dd8e64736f6c63430008040033",
  "linkReferences": {},
  "deployedLinkReferences": {}
}