{
  "_format": "hh-sol-artifact-1",
  "contractName": "NFTForge",
  "sourceName": "contracts/NFTForge.sol",
  "abi": [
    {
      "inputs": [
        {
          "internalType": "string",
          "name": "url",
          "type": "string"
        },
        {
          "internalType": "uint256[]",
          "name": "amounts",
          "type": "uint256[]"
        }
      ],
      "stateMutability": "nonpayable",
      "type": "constructor"
    },
    {
      "anonymous": false,
      "inputs": [
        {
          "indexed": true,
          "internalType": "address",
          "name": "account",
          "type": "address"
        },
        {
          "indexed": true,
          "internalType": "address",
          "name": "operator",
          "type": "address"
        },
        {
          "indexed": false,
          "internalType": "bool",
          "name": "approved",
          "type": "bool"
        }
      ],
      "name": "ApprovalForAll",
      "type": "event"
    },
    {
      "anonymous": false,
      "inputs": [
        {
          "indexed": true,
          "internalType": "address",
          "name": "operator",
          "type": "address"
        },
        {
          "indexed": true,
          "internalType": "address",
          "name": "from",
          "type": "address"
        },
        {
          "indexed": true,
          "internalType": "address",
          "name": "to",
          "type": "address"
        },
        {
          "indexed": false,
          "internalType": "uint256[]",
          "name": "ids",
          "type": "uint256[]"
        },
        {
          "indexed": false,
          "internalType": "uint256[]",
          "name": "values",
          "type": "uint256[]"
        }
      ],
      "name": "TransferBatch",
      "type": "event"
    },
    {
      "anonymous": false,
      "inputs": [
        {
          "indexed": true,
          "internalType": "address",
          "name": "operator",
          "type": "address"
        },
        {
          "indexed": true,
          "internalType": "address",
          "name": "from",
          "type": "address"
        },
        {
          "indexed": true,
          "internalType": "address",
          "name": "to",
          "type": "address"
        },
        {
          "indexed": false,
          "internalType": "uint256",
          "name": "id",
          "type": "uint256"
        },
        {
          "indexed": false,
          "internalType": "uint256",
          "name": "value",
          "type": "uint256"
        }
      ],
      "name": "TransferSingle",
      "type": "event"
    },
    {
      "anonymous": false,
      "inputs": [
        {
          "indexed": false,
          "internalType": "string",
          "name": "value",
          "type": "string"
        },
        {
          "indexed": true,
          "internalType": "uint256",
          "name": "id",
          "type": "uint256"
        }
      ],
      "name": "URI",
      "type": "event"
    },
    {
      "inputs": [
        {
          "internalType": "address",
          "name": "account",
          "type": "address"
        },
        {
          "internalType": "uint256",
          "name": "id",
          "type": "uint256"
        }
      ],
      "name": "balanceOf",
      "outputs": [
        {
          "internalType": "uint256",
          "name": "",
          "type": "uint256"
        }
      ],
      "stateMutability": "view",
      "type": "function"
    },
    {
      "inputs": [
        {
          "internalType": "address[]",
          "name": "accounts",
          "type": "address[]"
        },
        {
          "internalType": "uint256[]",
          "name": "ids",
          "type": "uint256[]"
        }
      ],
      "name": "balanceOfBatch",
      "outputs": [
        {
          "internalType": "uint256[]",
          "name": "",
          "type": "uint256[]"
        }
      ],
      "stateMutability": "view",
      "type": "function"
    },
    {
      "inputs": [],
      "name": "getIds",
      "outputs": [
        {
          "internalType": "uint256[]",
          "name": "",
          "type": "uint256[]"
        }
      ],
      "stateMutability": "view",
      "type": "function"
    },
    {
      "inputs": [
        {
          "internalType": "address",
          "name": "account",
          "type": "address"
        },
        {
          "internalType": "address",
          "name": "operator",
          "type": "address"
        }
      ],
      "name": "isApprovedForAll",
      "outputs": [
        {
          "internalType": "bool",
          "name": "",
          "type": "bool"
        }
      ],
      "stateMutability": "view",
      "type": "function"
    },
    {
      "inputs": [
        {
          "internalType": "uint256",
          "name": "nonce",
          "type": "uint256"
        }
      ],
      "name": "prng",
      "outputs": [
        {
          "internalType": "uint256",
          "name": "",
          "type": "uint256"
        }
      ],
      "stateMutability": "view",
      "type": "function"
    },
    {
      "inputs": [
        {
          "internalType": "address",
          "name": "from",
          "type": "address"
        },
        {
          "internalType": "address",
          "name": "to",
          "type": "address"
        },
        {
          "internalType": "uint256[]",
          "name": "ids",
          "type": "uint256[]"
        },
        {
          "internalType": "uint256[]",
          "name": "amounts",
          "type": "uint256[]"
        },
        {
          "internalType": "bytes",
          "name": "data",
          "type": "bytes"
        }
      ],
      "name": "safeBatchTransferFrom",
      "outputs": [],
      "stateMutability": "nonpayable",
      "type": "function"
    },
    {
      "inputs": [
        {
          "internalType": "address",
          "name": "from",
          "type": "address"
        },
        {
          "internalType": "address",
          "name": "to",
          "type": "address"
        },
        {
          "internalType": "uint256",
          "name": "id",
          "type": "uint256"
        },
        {
          "internalType": "uint256",
          "name": "amount",
          "type": "uint256"
        },
        {
          "internalType": "bytes",
          "name": "data",
          "type": "bytes"
        }
      ],
      "name": "safeTransferFrom",
      "outputs": [],
      "stateMutability": "nonpayable",
      "type": "function"
    },
    {
      "inputs": [
        {
          "internalType": "address",
          "name": "operator",
          "type": "address"
        },
        {
          "internalType": "bool",
          "name": "approved",
          "type": "bool"
        }
      ],
      "name": "setApprovalForAll",
      "outputs": [],
      "stateMutability": "nonpayable",
      "type": "function"
    },
    {
      "inputs": [
        {
          "internalType": "bytes4",
          "name": "interfaceId",
          "type": "bytes4"
        }
      ],
      "name": "supportsInterface",
      "outputs": [
        {
          "internalType": "bool",
          "name": "",
          "type": "bool"
        }
      ],
      "stateMutability": "view",
      "type": "function"
    },
    {
      "inputs": [
        {
          "internalType": "uint256",
          "name": "_tokenId",
          "type": "uint256"
        }
      ],
      "name": "uri",
      "outputs": [
        {
          "internalType": "string",
          "name": "",
          "type": "string"
        }
      ],
      "stateMutability": "view",
      "type": "function"
    }
  ],
  "bytecode": "0x60806040523480156200001157600080fd5b5060405162003f0638038062003f06833981810160405281019062000037919062000ab7565b8162000049816200033660201b60201c565b50600082600590805190602001906200006492919062000847565b50815167ffffffffffffffff811115620000a7577f4e487b7100000000000000000000000000000000000000000000000000000000600052604160045260246000fd5b604051908082528060200260200182016040528015620000d65781602001602082028036833780820191505090505b5060039080519060200190620000ee929190620008d8565b50815167ffffffffffffffff81111562000131577f4e487b7100000000000000000000000000000000000000000000000000000000600052604160045260246000fd5b604051908082528060200260200182016040528015620001605781602001602082028036833780820191505090505b506004908051906020019062000178929190620008d8565b50600090505b81518110156200032d5762000199816200035260201b60201c565b60038281548110620001d4577f4e487b7100000000000000000000000000000000000000000000000000000000600052603260045260246000fd5b90600052602060002001819055508181815181106200021c577f4e487b7100000000000000000000000000000000000000000000000000000000600052603260045260246000fd5b6020026020010151600482815481106200025f577f4e487b7100000000000000000000000000000000000000000000000000000000600052603260045260246000fd5b9060005260206000200181905550620003163360038381548110620002ad577f4e487b7100000000000000000000000000000000000000000000000000000000600052603260045260246000fd5b9060005260206000200154848481518110620002f2577f4e487b7100000000000000000000000000000000000000000000000000000000600052603260045260246000fd5b6020026020010151604051806020016040528060008152506200038c60201b60201c565b60018162000325919062000f44565b90506200017e565b5050506200137f565b80600290805190602001906200034e92919062000847565b5050565b6000813360056040516020016200036c9392919062000d04565b6040516020818303038152906040528051906020012060001c9050919050565b600073ffffffffffffffffffffffffffffffffffffffff168473ffffffffffffffffffffffffffffffffffffffff161415620003ff576040517f08c379a0000000000000000000000000000000000000000000000000000000008152600401620003f69062000e0f565b60405180910390fd5b6000620004116200055160201b60201c565b90506200044a816000876200042c886200055960201b60201c565b6200043d886200055960201b60201c565b876200062260201b60201c565b8260008086815260200190815260200160002060008773ffffffffffffffffffffffffffffffffffffffff1673ffffffffffffffffffffffffffffffffffffffff1681526020019081526020016000206000828254620004ab919062000f44565b925050819055508473ffffffffffffffffffffffffffffffffffffffff16600073ffffffffffffffffffffffffffffffffffffffff168273ffffffffffffffffffffffffffffffffffffffff167fc3d58168c5ae7397731d063d5bbf3d657854427343f4c083240f7aacaa2d0f6287876040516200052b92919062000e31565b60405180910390a46200054a816000878787876200062a60201b60201c565b5050505050565b600033905090565b60606000600167ffffffffffffffff8111156200059f577f4e487b7100000000000000000000000000000000000000000000000000000000600052604160045260246000fd5b604051908082528060200260200182016040528015620005ce5781602001602082028036833780820191505090505b50905082816000815181106200060d577f4e487b7100000000000000000000000000000000000000000000000000000000600052603260045260246000fd5b60200260200101818152505080915050919050565b505050505050565b620006568473ffffffffffffffffffffffffffffffffffffffff166200083460201b620009b21760201c565b156200082c578373ffffffffffffffffffffffffffffffffffffffff1663f23a6e6187878686866040518663ffffffff1660e01b81526004016200069f95949392919062000d43565b602060405180830381600087803b158015620006ba57600080fd5b505af1925050508015620006ee57506040513d601f19601f82011682018060405250810190620006eb919062000a8b565b60015b620007a057620006fd6200116c565b806308c379a0141562000761575062000715620012a9565b8062000722575062000763565b806040517f08c379a000000000000000000000000000000000000000000000000000000000815260040162000758919062000da7565b60405180910390fd5b505b6040517f08c379a0000000000000000000000000000000000000000000000000000000008152600401620007979062000dcb565b60405180910390fd5b63f23a6e6160e01b7bffffffffffffffffffffffffffffffffffffffffffffffffffffffff1916817bffffffffffffffffffffffffffffffffffffffffffffffffffffffff1916146200082a576040517f08c379a0000000000000000000000000000000000000000000000000000000008152600401620008219062000ded565b60405180910390fd5b505b505050505050565b600080823b905060008111915050919050565b828054620008559062001041565b90600052602060002090601f016020900481019282620008795760008555620008c5565b82601f106200089457805160ff1916838001178555620008c5565b82800160010185558215620008c5579182015b82811115620008c4578251825591602001919060010190620008a7565b5b509050620008d491906200092a565b5090565b82805482825590600052602060002090810192821562000917579160200282015b8281111562000916578251825591602001919060010190620008f9565b5b5090506200092691906200092a565b5090565b5b80821115620009455760008160009055506001016200092b565b5090565b6000620009606200095a8462000e87565b62000e5e565b905080838252602082019050828560208602820111156200098057600080fd5b60005b85811015620009b4578162000999888262000a74565b84526020840193506020830192505060018101905062000983565b5050509392505050565b6000620009d5620009cf8462000eb6565b62000e5e565b905082815260208101848484011115620009ee57600080fd5b620009fb8482856200100b565b509392505050565b600082601f83011262000a1557600080fd5b815162000a2784826020860162000949565b91505092915050565b60008151905062000a41816200134b565b92915050565b600082601f83011262000a5957600080fd5b815162000a6b848260208601620009be565b91505092915050565b60008151905062000a858162001365565b92915050565b60006020828403121562000a9e57600080fd5b600062000aae8482850162000a30565b91505092915050565b6000806040838503121562000acb57600080fd5b600083015167ffffffffffffffff81111562000ae657600080fd5b62000af48582860162000a47565b925050602083015167ffffffffffffffff81111562000b1257600080fd5b62000b208582860162000a03565b9150509250929050565b62000b358162000fa1565b82525050565b62000b5062000b4a8262000fa1565b620010ad565b82525050565b600062000b638262000f01565b62000b6f818562000f17565b935062000b818185602086016200100b565b62000b8c8162001191565b840191505092915050565b600062000ba48262000f0c565b62000bb0818562000f28565b935062000bc28185602086016200100b565b62000bcd8162001191565b840191505092915050565b6000815462000be78162001041565b62000bf3818662000f39565b9450600182166000811462000c11576001811462000c235762000c5a565b60ff1983168652818601935062000c5a565b62000c2e8562000eec565b60005b8381101562000c525781548189015260018201915060208101905062000c31565b838801955050505b50505092915050565b600062000c7260348362000f28565b915062000c7f82620011bc565b604082019050919050565b600062000c9960288362000f28565b915062000ca6826200120b565b604082019050919050565b600062000cc060218362000f28565b915062000ccd826200125a565b604082019050919050565b62000ce38162001001565b82525050565b62000cfe62000cf88262001001565b620010d5565b82525050565b600062000d12828662000ce9565b60208201915062000d24828562000b3b565b60148201915062000d36828462000bd8565b9150819050949350505050565b600060a08201905062000d5a600083018862000b2a565b62000d69602083018762000b2a565b62000d78604083018662000cd8565b62000d87606083018562000cd8565b818103608083015262000d9b818462000b56565b90509695505050505050565b6000602082019050818103600083015262000dc3818462000b97565b905092915050565b6000602082019050818103600083015262000de68162000c63565b9050919050565b6000602082019050818103600083015262000e088162000c8a565b9050919050565b6000602082019050818103600083015262000e2a8162000cb1565b9050919050565b600060408201905062000e48600083018562000cd8565b62000e57602083018462000cd8565b9392505050565b600062000e6a62000e7d565b905062000e78828262001077565b919050565b6000604051905090565b600067ffffffffffffffff82111562000ea55762000ea46200113d565b5b602082029050602081019050919050565b600067ffffffffffffffff82111562000ed45762000ed36200113d565b5b62000edf8262001191565b9050602081019050919050565b60008190508160005260206000209050919050565b600081519050919050565b600081519050919050565b600082825260208201905092915050565b600082825260208201905092915050565b600081905092915050565b600062000f518262001001565b915062000f5e8362001001565b9250827fffffffffffffffffffffffffffffffffffffffffffffffffffffffffffffffff0382111562000f965762000f95620010df565b5b828201905092915050565b600062000fae8262000fe1565b9050919050565b60007fffffffff0000000000000000000000000000000000000000000000000000000082169050919050565b600073ffffffffffffffffffffffffffffffffffffffff82169050919050565b6000819050919050565b60005b838110156200102b5780820151818401526020810190506200100e565b838111156200103b576000848401525b50505050565b600060028204905060018216806200105a57607f821691505b602082108114156200107157620010706200110e565b5b50919050565b620010828262001191565b810181811067ffffffffffffffff82111715620010a457620010a36200113d565b5b80604052505050565b6000620010ba82620010c1565b9050919050565b6000620010ce82620011a2565b9050919050565b6000819050919050565b7f4e487b7100000000000000000000000000000000000000000000000000000000600052601160045260246000fd5b7f4e487b7100000000000000000000000000000000000000000000000000000000600052602260045260246000fd5b7f4e487b7100000000000000000000000000000000000000000000000000000000600052604160045260246000fd5b600060033d11156200118e5760046000803e6200118b600051620011af565b90505b90565b6000601f19601f8301169050919050565b60008160601b9050919050565b60008160e01c9050919050565b7f455243313135353a207472616e7366657220746f206e6f6e204552433131353560008201527f526563656976657220696d706c656d656e746572000000000000000000000000602082015250565b7f455243313135353a204552433131353552656365697665722072656a6563746560008201527f6420746f6b656e73000000000000000000000000000000000000000000000000602082015250565b7f455243313135353a206d696e7420746f20746865207a65726f2061646472657360008201527f7300000000000000000000000000000000000000000000000000000000000000602082015250565b600060443d1015620012bb5762001348565b620012c562000e7d565b60043d036004823e80513d602482011167ffffffffffffffff82111715620012ef57505062001348565b808201805167ffffffffffffffff8111156200130f575050505062001348565b80602083010160043d0385018111156200132e57505050505062001348565b6200133f8260200185018662001077565b82955050505050505b90565b620013568162000fb5565b81146200136257600080fd5b50565b620013708162001001565b81146200137c57600080fd5b50565b612b77806200138f6000396000f3fe608060405234801561001057600080fd5b506004361061009d5760003560e01c806340dc6f591161006657806340dc6f591461016c5780634e1273f41461019c578063a22cb465146101cc578063e985e9c5146101e8578063f242432a146102185761009d565b8062fdd58e146100a257806301ffc9a7146100d25780630e89341c146101025780632b105663146101325780632eb2c2d614610150575b600080fd5b6100bc60048036038101906100b79190611ab9565b610234565b6040516100c99190612231565b60405180910390f35b6100ec60048036038101906100e79190611b61565b6102fd565b6040516100f991906120b4565b60405180910390f35b61011c60048036038101906101179190611bb3565b6103df565b60405161012991906120cf565b60405180910390f35b61013a61041a565b604051610147919061205b565b60405180910390f35b61016a6004803603810190610165919061192f565b610472565b005b61018660048036038101906101819190611bb3565b610513565b6040516101939190612231565b60405180910390f35b6101b660048036038101906101b19190611af5565b61054b565b6040516101c3919061205b565b60405180910390f35b6101e660048036038101906101e19190611a7d565b6106fc565b005b61020260048036038101906101fd91906118f3565b61087d565b60405161020f91906120b4565b60405180910390f35b610232600480360381019061022d91906119ee565b610911565b005b60008073ffffffffffffffffffffffffffffffffffffffff168373ffffffffffffffffffffffffffffffffffffffff1614156102a5576040517f08c379a000000000000000000000000000000000000000000000000000000000815260040161029c90612131565b60405180910390fd5b60008083815260200190815260200160002060008473ffffffffffffffffffffffffffffffffffffffff1673ffffffffffffffffffffffffffffffffffffffff16815260200190815260200160002054905092915050565b60007fd9b67a26000000000000000000000000000000000000000000000000000000007bffffffffffffffffffffffffffffffffffffffffffffffffffffffff1916827bffffffffffffffffffffffffffffffffffffffffffffffffffffffff191614806103c857507f0e89341c000000000000000000000000000000000000000000000000000000007bffffffffffffffffffffffffffffffffffffffffffffffffffffffff1916827bffffffffffffffffffffffffffffffffffffffffffffffffffffffff1916145b806103d857506103d7826109c5565b5b9050919050565b60606103ea82610a2f565b6103f383610ac3565b604051602001610404929190611f3c565b6040516020818303038152906040529050919050565b6060600380548060200260200160405190810160405280929190818152602001828054801561046857602002820191906000526020600020905b815481526020019060010190808311610454575b5050505050905090565b61047a610c70565b73ffffffffffffffffffffffffffffffffffffffff168573ffffffffffffffffffffffffffffffffffffffff1614806104c057506104bf856104ba610c70565b61087d565b5b6104ff576040517f08c379a00000000000000000000000000000000000000000000000000000000081526004016104f690612191565b60405180910390fd5b61050c8585858585610c78565b5050505050565b60008133600560405160200161052b93929190611f60565b6040516020818303038152906040528051906020012060001c9050919050565b60608151835114610591576040517f08c379a0000000000000000000000000000000000000000000000000000000008152600401610588906121f1565b60405180910390fd5b6000835167ffffffffffffffff8111156105d4577f4e487b7100000000000000000000000000000000000000000000000000000000600052604160045260246000fd5b6040519080825280602002602001820160405280156106025781602001602082028036833780820191505090505b50905060005b84518110156106f15761069b85828151811061064d577f4e487b7100000000000000000000000000000000000000000000000000000000600052603260045260246000fd5b602002602001015185838151811061068e577f4e487b7100000000000000000000000000000000000000000000000000000000600052603260045260246000fd5b6020026020010151610234565b8282815181106106d4577f4e487b7100000000000000000000000000000000000000000000000000000000600052603260045260246000fd5b602002602001018181525050806106ea90612588565b9050610608565b508091505092915050565b8173ffffffffffffffffffffffffffffffffffffffff1661071b610c70565b73ffffffffffffffffffffffffffffffffffffffff161415610772576040517f08c379a0000000000000000000000000000000000000000000000000000000008152600401610769906121d1565b60405180910390fd5b806001600061077f610c70565b73ffffffffffffffffffffffffffffffffffffffff1673ffffffffffffffffffffffffffffffffffffffff16815260200190815260200160002060008473ffffffffffffffffffffffffffffffffffffffff1673ffffffffffffffffffffffffffffffffffffffff16815260200190815260200160002060006101000a81548160ff0219169083151502179055508173ffffffffffffffffffffffffffffffffffffffff1661082c610c70565b73ffffffffffffffffffffffffffffffffffffffff167f17307eab39ab6107e8899845ad3d59bd9653f200f220920489ca2b5937696c318360405161087191906120b4565b60405180910390a35050565b6000600160008473ffffffffffffffffffffffffffffffffffffffff1673ffffffffffffffffffffffffffffffffffffffff16815260200190815260200160002060008373ffffffffffffffffffffffffffffffffffffffff1673ffffffffffffffffffffffffffffffffffffffff16815260200190815260200160002060009054906101000a900460ff16905092915050565b610919610c70565b73ffffffffffffffffffffffffffffffffffffffff168573ffffffffffffffffffffffffffffffffffffffff16148061095f575061095e85610959610c70565b61087d565b5b61099e576040517f08c379a000000000000000000000000000000000000000000000000000000000815260040161099590612151565b60405180910390fd5b6109ab8585858585610fd8565b5050505050565b600080823b905060008111915050919050565b60007f01ffc9a7000000000000000000000000000000000000000000000000000000007bffffffffffffffffffffffffffffffffffffffffffffffffffffffff1916827bffffffffffffffffffffffffffffffffffffffffffffffffffffffff1916149050919050565b606060028054610a3e90612525565b80601f0160208091040260200160405190810160405280929190818152602001828054610a6a90612525565b8015610ab75780601f10610a8c57610100808354040283529160200191610ab7565b820191906000526020600020905b815481529060010190602001808311610a9a57829003601f168201915b50505050509050919050565b60606000821415610b0b576040518060400160405280600181526020017f30000000000000000000000000000000000000000000000000000000000000008152509050610c6b565b600082905060005b60008214610b3d578080610b2690612588565b915050600a82610b36919061240a565b9150610b13565b60008167ffffffffffffffff811115610b7f577f4e487b7100000000000000000000000000000000000000000000000000000000600052604160045260246000fd5b6040519080825280601f01601f191660200182016040528015610bb15781602001600182028036833780820191505090505b5090505b60008514610c6457600182610bca919061243b565b9150600a85610bd991906125ff565b6030610be591906123b4565b60f81b818381518110610c21577f4e487b7100000000000000000000000000000000000000000000000000000000600052603260045260246000fd5b60200101907effffffffffffffffffffffffffffffffffffffffffffffffffffffffffffff1916908160001a905350600a85610c5d919061240a565b9450610bb5565b8093505050505b919050565b600033905090565b8151835114610cbc576040517f08c379a0000000000000000000000000000000000000000000000000000000008152600401610cb390612211565b60405180910390fd5b600073ffffffffffffffffffffffffffffffffffffffff168473ffffffffffffffffffffffffffffffffffffffff161415610d2c576040517f08c379a0000000000000000000000000000000000000000000000000000000008152600401610d2390612171565b60405180910390fd5b6000610d36610c70565b9050610d4681878787878761125a565b60005b8451811015610f43576000858281518110610d8d577f4e487b7100000000000000000000000000000000000000000000000000000000600052603260045260246000fd5b602002602001015190506000858381518110610dd2577f4e487b7100000000000000000000000000000000000000000000000000000000600052603260045260246000fd5b60200260200101519050600080600084815260200190815260200160002060008b73ffffffffffffffffffffffffffffffffffffffff1673ffffffffffffffffffffffffffffffffffffffff16815260200190815260200160002054905081811015610e73576040517f08c379a0000000000000000000000000000000000000000000000000000000008152600401610e6a906121b1565b60405180910390fd5b81810360008085815260200190815260200160002060008c73ffffffffffffffffffffffffffffffffffffffff1673ffffffffffffffffffffffffffffffffffffffff168152602001908152602001600020819055508160008085815260200190815260200160002060008b73ffffffffffffffffffffffffffffffffffffffff1673ffffffffffffffffffffffffffffffffffffffff1681526020019081526020016000206000828254610f2891906123b4565b9250508190555050505080610f3c90612588565b9050610d49565b508473ffffffffffffffffffffffffffffffffffffffff168673ffffffffffffffffffffffffffffffffffffffff168273ffffffffffffffffffffffffffffffffffffffff167f4a39dc06d4c0dbc64b70af90fd698a233a518aa5d07e595d983b8c0526c8f7fb8787604051610fba92919061207d565b60405180910390a4610fd0818787878787611262565b505050505050565b600073ffffffffffffffffffffffffffffffffffffffff168473ffffffffffffffffffffffffffffffffffffffff161415611048576040517f08c379a000000000000000000000000000000000000000000000000000000000815260040161103f90612171565b60405180910390fd5b6000611052610c70565b905061107281878761106388611449565b61106c88611449565b8761125a565b600080600086815260200190815260200160002060008873ffffffffffffffffffffffffffffffffffffffff1673ffffffffffffffffffffffffffffffffffffffff16815260200190815260200160002054905083811015611109576040517f08c379a0000000000000000000000000000000000000000000000000000000008152600401611100906121b1565b60405180910390fd5b83810360008087815260200190815260200160002060008973ffffffffffffffffffffffffffffffffffffffff1673ffffffffffffffffffffffffffffffffffffffff168152602001908152602001600020819055508360008087815260200190815260200160002060008873ffffffffffffffffffffffffffffffffffffffff1673ffffffffffffffffffffffffffffffffffffffff16815260200190815260200160002060008282546111be91906123b4565b925050819055508573ffffffffffffffffffffffffffffffffffffffff168773ffffffffffffffffffffffffffffffffffffffff168373ffffffffffffffffffffffffffffffffffffffff167fc3d58168c5ae7397731d063d5bbf3d657854427343f4c083240f7aacaa2d0f62888860405161123b92919061224c565b60405180910390a461125182888888888861150f565b50505050505050565b505050505050565b6112818473ffffffffffffffffffffffffffffffffffffffff166109b2565b15611441578373ffffffffffffffffffffffffffffffffffffffff1663bc197c8187878686866040518663ffffffff1660e01b81526004016112c7959493929190611f99565b602060405180830381600087803b1580156112e157600080fd5b505af192505050801561131257506040513d601f19601f8201168201806040525081019061130f9190611b8a565b60015b6113b85761131e6126ec565b806308c379a0141561137b5750611333612a4f565b8061133e575061137d565b806040517f08c379a000000000000000000000000000000000000000000000000000000000815260040161137291906120cf565b60405180910390fd5b505b6040517f08c379a00000000000000000000000000000000000000000000000000000000081526004016113af906120f1565b60405180910390fd5b63bc197c8160e01b7bffffffffffffffffffffffffffffffffffffffffffffffffffffffff1916817bffffffffffffffffffffffffffffffffffffffffffffffffffffffff19161461143f576040517f08c379a000000000000000000000000000000000000000000000000000000000815260040161143690612111565b60405180910390fd5b505b505050505050565b60606000600167ffffffffffffffff81111561148e577f4e487b7100000000000000000000000000000000000000000000000000000000600052604160045260246000fd5b6040519080825280602002602001820160405280156114bc5781602001602082028036833780820191505090505b50905082816000815181106114fa577f4e487b7100000000000000000000000000000000000000000000000000000000600052603260045260246000fd5b60200260200101818152505080915050919050565b61152e8473ffffffffffffffffffffffffffffffffffffffff166109b2565b156116ee578373ffffffffffffffffffffffffffffffffffffffff1663f23a6e6187878686866040518663ffffffff1660e01b8152600401611574959493929190612001565b602060405180830381600087803b15801561158e57600080fd5b505af19250505080156115bf57506040513d601f19601f820116820180604052508101906115bc9190611b8a565b60015b611665576115cb6126ec565b806308c379a0141561162857506115e0612a4f565b806115eb575061162a565b806040517f08c379a000000000000000000000000000000000000000000000000000000000815260040161161f91906120cf565b60405180910390fd5b505b6040517f08c379a000000000000000000000000000000000000000000000000000000000815260040161165c906120f1565b60405180910390fd5b63f23a6e6160e01b7bffffffffffffffffffffffffffffffffffffffffffffffffffffffff1916817bffffffffffffffffffffffffffffffffffffffffffffffffffffffff1916146116ec576040517f08c379a00000000000000000000000000000000000000000000000000000000081526004016116e390612111565b60405180910390fd5b505b505050505050565b60006117096117048461229a565b612275565b9050808382526020820190508285602086028201111561172857600080fd5b60005b85811015611758578161173e888261180c565b84526020840193506020830192505060018101905061172b565b5050509392505050565b6000611775611770846122c6565b612275565b9050808382526020820190508285602086028201111561179457600080fd5b60005b858110156117c457816117aa88826118de565b845260208401935060208301925050600181019050611797565b5050509392505050565b60006117e16117dc846122f2565b612275565b9050828152602081018484840111156117f957600080fd5b6118048482856124e3565b509392505050565b60008135905061181b81612ae5565b92915050565b600082601f83011261183257600080fd5b81356118428482602086016116f6565b91505092915050565b600082601f83011261185c57600080fd5b813561186c848260208601611762565b91505092915050565b60008135905061188481612afc565b92915050565b60008135905061189981612b13565b92915050565b6000815190506118ae81612b13565b92915050565b600082601f8301126118c557600080fd5b81356118d58482602086016117ce565b91505092915050565b6000813590506118ed81612b2a565b92915050565b6000806040838503121561190657600080fd5b60006119148582860161180c565b92505060206119258582860161180c565b9150509250929050565b600080600080600060a0868803121561194757600080fd5b60006119558882890161180c565b95505060206119668882890161180c565b945050604086013567ffffffffffffffff81111561198357600080fd5b61198f8882890161184b565b935050606086013567ffffffffffffffff8111156119ac57600080fd5b6119b88882890161184b565b925050608086013567ffffffffffffffff8111156119d557600080fd5b6119e1888289016118b4565b9150509295509295909350565b600080600080600060a08688031215611a0657600080fd5b6000611a148882890161180c565b9550506020611a258882890161180c565b9450506040611a36888289016118de565b9350506060611a47888289016118de565b925050608086013567ffffffffffffffff811115611a6457600080fd5b611a70888289016118b4565b9150509295509295909350565b60008060408385031215611a9057600080fd5b6000611a9e8582860161180c565b9250506020611aaf85828601611875565b9150509250929050565b60008060408385031215611acc57600080fd5b6000611ada8582860161180c565b9250506020611aeb858286016118de565b9150509250929050565b60008060408385031215611b0857600080fd5b600083013567ffffffffffffffff811115611b2257600080fd5b611b2e85828601611821565b925050602083013567ffffffffffffffff811115611b4b57600080fd5b611b578582860161184b565b9150509250929050565b600060208284031215611b7357600080fd5b6000611b818482850161188a565b91505092915050565b600060208284031215611b9c57600080fd5b6000611baa8482850161189f565b91505092915050565b600060208284031215611bc557600080fd5b6000611bd3848285016118de565b91505092915050565b6000611be88383611f07565b60208301905092915050565b611bfd8161246f565b82525050565b611c14611c0f8261246f565b6125d1565b82525050565b6000611c2582612348565b611c2f8185612376565b9350611c3a83612323565b8060005b83811015611c6b578151611c528882611bdc565b9750611c5d83612369565b925050600181019050611c3e565b5085935050505092915050565b611c8181612481565b82525050565b6000611c9282612353565b611c9c8185612387565b9350611cac8185602086016124f2565b611cb58161270e565b840191505092915050565b6000611ccb8261235e565b611cd58185612398565b9350611ce58185602086016124f2565b611cee8161270e565b840191505092915050565b6000611d048261235e565b611d0e81856123a9565b9350611d1e8185602086016124f2565b80840191505092915050565b60008154611d3781612525565b611d4181866123a9565b94506001821660008114611d5c5760018114611d6d57611da0565b60ff19831686528186019350611da0565b611d7685612333565b60005b83811015611d9857815481890152600182019150602081019050611d79565b838801955050505b50505092915050565b6000611db6603483612398565b9150611dc182612739565b604082019050919050565b6000611dd9602883612398565b9150611de482612788565b604082019050919050565b6000611dfc602b83612398565b9150611e07826127d7565b604082019050919050565b6000611e1f602983612398565b9150611e2a82612826565b604082019050919050565b6000611e42602583612398565b9150611e4d82612875565b604082019050919050565b6000611e65603283612398565b9150611e70826128c4565b604082019050919050565b6000611e88602a83612398565b9150611e9382612913565b604082019050919050565b6000611eab602983612398565b9150611eb682612962565b604082019050919050565b6000611ece602983612398565b9150611ed9826129b1565b604082019050919050565b6000611ef1602883612398565b9150611efc82612a00565b604082019050919050565b611f10816124d9565b82525050565b611f1f816124d9565b82525050565b611f36611f31826124d9565b6125f5565b82525050565b6000611f488285611cf9565b9150611f548284611cf9565b91508190509392505050565b6000611f6c8286611f25565b602082019150611f7c8285611c03565b601482019150611f8c8284611d2a565b9150819050949350505050565b600060a082019050611fae6000830188611bf4565b611fbb6020830187611bf4565b8181036040830152611fcd8186611c1a565b90508181036060830152611fe18185611c1a565b90508181036080830152611ff58184611c87565b90509695505050505050565b600060a0820190506120166000830188611bf4565b6120236020830187611bf4565b6120306040830186611f16565b61203d6060830185611f16565b818103608083015261204f8184611c87565b90509695505050505050565b600060208201905081810360008301526120758184611c1a565b905092915050565b600060408201905081810360008301526120978185611c1a565b905081810360208301526120ab8184611c1a565b90509392505050565b60006020820190506120c96000830184611c78565b92915050565b600060208201905081810360008301526120e98184611cc0565b905092915050565b6000602082019050818103600083015261210a81611da9565b9050919050565b6000602082019050818103600083015261212a81611dcc565b9050919050565b6000602082019050818103600083015261214a81611def565b9050919050565b6000602082019050818103600083015261216a81611e12565b9050919050565b6000602082019050818103600083015261218a81611e35565b9050919050565b600060208201905081810360008301526121aa81611e58565b9050919050565b600060208201905081810360008301526121ca81611e7b565b9050919050565b600060208201905081810360008301526121ea81611e9e565b9050919050565b6000602082019050818103600083015261220a81611ec1565b9050919050565b6000602082019050818103600083015261222a81611ee4565b9050919050565b60006020820190506122466000830184611f16565b92915050565b60006040820190506122616000830185611f16565b61226e6020830184611f16565b9392505050565b600061227f612290565b905061228b8282612557565b919050565b6000604051905090565b600067ffffffffffffffff8211156122b5576122b46126bd565b5b602082029050602081019050919050565b600067ffffffffffffffff8211156122e1576122e06126bd565b5b602082029050602081019050919050565b600067ffffffffffffffff82111561230d5761230c6126bd565b5b6123168261270e565b9050602081019050919050565b6000819050602082019050919050565b60008190508160005260206000209050919050565b600081519050919050565b600081519050919050565b600081519050919050565b6000602082019050919050565b600082825260208201905092915050565b600082825260208201905092915050565b600082825260208201905092915050565b600081905092915050565b60006123bf826124d9565b91506123ca836124d9565b9250827fffffffffffffffffffffffffffffffffffffffffffffffffffffffffffffffff038211156123ff576123fe612630565b5b828201905092915050565b6000612415826124d9565b9150612420836124d9565b9250826124305761242f61265f565b5b828204905092915050565b6000612446826124d9565b9150612451836124d9565b92508282101561246457612463612630565b5b828203905092915050565b600061247a826124b9565b9050919050565b60008115159050919050565b60007fffffffff0000000000000000000000000000000000000000000000000000000082169050919050565b600073ffffffffffffffffffffffffffffffffffffffff82169050919050565b6000819050919050565b82818337600083830152505050565b60005b838110156125105780820151818401526020810190506124f5565b8381111561251f576000848401525b50505050565b6000600282049050600182168061253d57607f821691505b602082108114156125515761255061268e565b5b50919050565b6125608261270e565b810181811067ffffffffffffffff8211171561257f5761257e6126bd565b5b80604052505050565b6000612593826124d9565b91507fffffffffffffffffffffffffffffffffffffffffffffffffffffffffffffffff8214156125c6576125c5612630565b5b600182019050919050565b60006125dc826125e3565b9050919050565b60006125ee8261271f565b9050919050565b6000819050919050565b600061260a826124d9565b9150612615836124d9565b9250826126255761262461265f565b5b828206905092915050565b7f4e487b7100000000000000000000000000000000000000000000000000000000600052601160045260246000fd5b7f4e487b7100000000000000000000000000000000000000000000000000000000600052601260045260246000fd5b7f4e487b7100000000000000000000000000000000000000000000000000000000600052602260045260246000fd5b7f4e487b7100000000000000000000000000000000000000000000000000000000600052604160045260246000fd5b600060033d111561270b5760046000803e61270860005161272c565b90505b90565b6000601f19601f8301169050919050565b60008160601b9050919050565b60008160e01c9050919050565b7f455243313135353a207472616e7366657220746f206e6f6e204552433131353560008201527f526563656976657220696d706c656d656e746572000000000000000000000000602082015250565b7f455243313135353a204552433131353552656365697665722072656a6563746560008201527f6420746f6b656e73000000000000000000000000000000000000000000000000602082015250565b7f455243313135353a2062616c616e636520717565727920666f7220746865207a60008201527f65726f2061646472657373000000000000000000000000000000000000000000602082015250565b7f455243313135353a2063616c6c6572206973206e6f74206f776e6572206e6f7260008201527f20617070726f7665640000000000000000000000000000000000000000000000602082015250565b7f455243313135353a207472616e7366657220746f20746865207a65726f20616460008201527f6472657373000000000000000000000000000000000000000000000000000000602082015250565b7f455243313135353a207472616e736665722063616c6c6572206973206e6f742060008201527f6f776e6572206e6f7220617070726f7665640000000000000000000000000000602082015250565b7f455243313135353a20696e73756666696369656e742062616c616e636520666f60008201527f72207472616e7366657200000000000000000000000000000000000000000000602082015250565b7f455243313135353a2073657474696e6720617070726f76616c2073746174757360008201527f20666f722073656c660000000000000000000000000000000000000000000000602082015250565b7f455243313135353a206163636f756e747320616e6420696473206c656e67746860008201527f206d69736d617463680000000000000000000000000000000000000000000000602082015250565b7f455243313135353a2069647320616e6420616d6f756e7473206c656e6774682060008201527f6d69736d61746368000000000000000000000000000000000000000000000000602082015250565b600060443d1015612a5f57612ae2565b612a67612290565b60043d036004823e80513d602482011167ffffffffffffffff82111715612a8f575050612ae2565b808201805167ffffffffffffffff811115612aad5750505050612ae2565b80602083010160043d038501811115612aca575050505050612ae2565b612ad982602001850186612557565b82955050505050505b90565b612aee8161246f565b8114612af957600080fd5b50565b612b0581612481565b8114612b1057600080fd5b50565b612b1c8161248d565b8114612b2757600080fd5b50565b612b33816124d9565b8114612b3e57600080fd5b5056fea2646970667358221220706136d288bd8b2e84110efa9d4a1f22c6e0ca54cb6d9cabbffb8b8559a43ce164736f6c63430008040033",
  "linkReferences": {},
  "deployedLinkReferences": {}
}